{
  "_format": "hh-sol-artifact-1",
  "contractName": "DocumentVerification",
  "sourceName": "contracts/DocumentVerification.sol",
  "abi": [
    {
      "anonymous": false,
      "inputs": [
        {
          "indexed": true,
          "internalType": "bytes32",
          "name": "docHash",
          "type": "bytes32"
        },
        {
          "indexed": true,
          "internalType": "address",
          "name": "uploader",
          "type": "address"
        },
        {
          "indexed": false,
          "internalType": "uint256",
          "name": "timestamp",
          "type": "uint256"
        }
      ],
      "name": "DocumentStored",
      "type": "event"
    },
    {
      "inputs": [
        {
          "internalType": "bytes32",
          "name": "",
          "type": "bytes32"
        }
      ],
      "name": "documents",
      "outputs": [
        {
          "internalType": "address",
          "name": "uploader",
          "type": "address"
        },
        {
          "internalType": "uint256",
          "name": "timestamp",
          "type": "uint256"
        }
      ],
      "stateMutability": "view",
      "type": "function"
    },
    {
      "inputs": [
        {
          "internalType": "bytes32",
          "name": "docHash",
          "type": "bytes32"
        }
      ],
      "name": "storeDocument",
      "outputs": [],
      "stateMutability": "nonpayable",
      "type": "function"
    },
    {
      "inputs": [
        {
          "internalType": "bytes32",
          "name": "docHash",
          "type": "bytes32"
        }
      ],
      "name": "verifyDocument",
      "outputs": [
        {
          "internalType": "bool",
          "name": "",
          "type": "bool"
        },
        {
          "internalType": "address",
          "name": "",
          "type": "address"
        },
        {
          "internalType": "uint256",
          "name": "",
          "type": "uint256"
        }
      ],
      "stateMutability": "view",
      "type": "function"
    }
  ],
  "bytecode": "0x6080604052348015600f57600080fd5b5061050c8061001f6000396000f3fe608060405234801561001057600080fd5b50600436106100415760003560e01c80632b2805db146100465780639ed946f414610077578063fe35089f14610093575b600080fd5b610060600480360381019061005b919061033c565b6100c5565b60405161006e9291906103c3565b60405180910390f35b610091600480360381019061008c919061033c565b610109565b005b6100ad60048036038101906100a8919061033c565b610244565b6040516100bc93929190610407565b60405180910390f35b60006020528060005260406000206000915090508060000160009054906101000a900473ffffffffffffffffffffffffffffffffffffffff16908060010154905082565b60008060008381526020019081526020016000206001015414610161576040517f08c379a00000000000000000000000000000000000000000000000000000000081526004016101589061049b565b60405180910390fd5b60405180604001604052803373ffffffffffffffffffffffffffffffffffffffff1681526020014281525060008083815260200190815260200160002060008201518160000160006101000a81548173ffffffffffffffffffffffffffffffffffffffff021916908373ffffffffffffffffffffffffffffffffffffffff160217905550602082015181600101559050503373ffffffffffffffffffffffffffffffffffffffff16817f26ad08a07a21a75bfa696129b53a22d710a416ca3941ed4110a27e41c2ac679a4260405161023991906104bb565b60405180910390a350565b6000806000806000808681526020019081526020016000206040518060400160405290816000820160009054906101000a900473ffffffffffffffffffffffffffffffffffffffff1673ffffffffffffffffffffffffffffffffffffffff1673ffffffffffffffffffffffffffffffffffffffff168152602001600182015481525050905060008160200151036102e6576000806000935093509350506102fa565b600181600001518260200151935093509350505b9193909250565b600080fd5b6000819050919050565b61031981610306565b811461032457600080fd5b50565b60008135905061033681610310565b92915050565b60006020828403121561035257610351610301565b5b600061036084828501610327565b91505092915050565b600073ffffffffffffffffffffffffffffffffffffffff82169050919050565b600061039482610369565b9050919050565b6103a481610389565b82525050565b6000819050919050565b6103bd816103aa565b82525050565b60006040820190506103d8600083018561039b565b6103e560208301846103b4565b9392505050565b60008115159050919050565b610401816103ec565b82525050565b600060608201905061041c60008301866103f8565b610429602083018561039b565b61043660408301846103b4565b949350505050565b600082825260208201905092915050565b7f446f63756d656e7420616c726561647920657869737473000000000000000000600082015250565b600061048560178361043e565b91506104908261044f565b602082019050919050565b600060208201905081810360008301526104b481610478565b9050919050565b60006020820190506104d060008301846103b4565b9291505056fea264697066735822122001ff8b7577598a46aeeb675f7efad618a7afd4d036c975fb2d3cc9677070daf464736f6c634300081c0033",
  "linkReferences": {},
  "deployedLinkReferences": {}
}